S01500004156522075617274206563686F2E737265638B
S11300000C947A000C9499000C9499000C94990027
S11300100C9499000C9499000C9499000C949900F8
S11300200C9499000C9499000C9499000C949900E8
S11300300C9499000C9499000C9499000C949900D8
S11300400C9499000C9499000C9499000C949900C8
S11300500C9499000C9499000C9499000C949900B8
S11300600C944B020C9499000C9499000C949900F4
S11300700C9499000C9499000C9499000C94990098
S11300800C9499000C9499000C9499000C94990088
S11300900C9499000C9499000C9499000C94990078
S11300A00C9499000C9499000C9499000C94990068
S11300B00C9499000C9499000C9499000C94990058
S11300C00C9499000C9499000C9499000C94990048
S11300D00C9499000C9403020C9499000C949900CC
S11300E00C9499000C9499000C9499000C94990028
S11300F00C94990011241FBECFEFCDBFDFE7DEBF04
S113010011E4A0E0B0E4EEEDFDE000E00BBF02C0BE
S113011007900D92AC37B107D9F721E4ACE7B1E40D
S113012001C01D92A53DB207E1F70E94D2000C94D4
S1130130ED060C9400000F931F93CF93DF93CDB77C
S1130140DEB7C854D109CDBFDEBF982F8E010F5F33
S11301501F4F88E4F80111928A95E9F788E4ECE7E7
S1130160F1E4D80101900D928A95E1F76DEC969F28
S1130170612D1124962F9695969596952091C641BA
S11301803091C741692F70E043E050E0C8010E94FC
S1130190A003C85BDF4FCDBFDEBFDF91CF911F91BE
S11301A00F9108950E942C0664E288E690E00E9474
S11301B0E7060E94D5020E94B8020E94AD020E9486
S11301C0A402789443E050E068E170E08CE791E4A5
S11301D00E94E6020E94120388E490E40E9447060B
S11301E010E08091C4419091C5410197B9F50E94F6
S11301F0FE05C0E02DC00E9414060091CA41109172
S1130200CB417801FF248C2F90E09C012B5F3F4F62
S11302102E153F0594F00597E816F90674F0802F23
S11302200E949B0086E590E40E944706C7010E9455
S1130230540681E391E40E9447062FE78FE492E19C
S1130240215080409040E1F700C0000011E0C02F31
S11302508091C4419091C541892B69F68091C44134
S11302609091C541892B09F0BCCF113009F0B9CF69
S11302700E94260643E050E068E170E08CE791E4D8
S11302800E94E6020E94120310E0ABCFCF93DF93EB
S1130290EC016CE570E40E94A906892B69F48FE5F2
S11302A090E40E94470643E050E068E170E080E09B
S11302B090E40E94E602A4C06DE670E4CE010E94C0
S11302C0A906892B69F481E790E40E94470643E07C
S11302D050E068E170E08CE791E40E94E60290C08F
S11302E060E870E4CE010E94A906892B69F485E8D0
S11302F090E40E94470643E050E068E170E08CE738
S113030091E40E9496057CC06DE970E4CE010E94E0
S1130310A906892B69F484EA90E40E94470643E025
S113032050E068E170E080E090E40E94F80468C066
S11303306DEB70E4CE010E94A906892B49F482EC8E
S113034090E40E9447061092C4411092C54158C0DF
S11303506EED70E4CE010E94A906892B09F450C009
S113036067EE70E4CE010E94A906892B59F48DEE44
S113037090E40E94470681E090E08093C44190930A
S1130380C5413EC069E071E4CE010E94A906892BF3
S113039099F480E191E40E9447062091C64130918E
S11303A0C74181E090E0232B11F080E090E080933E
S11303B0C6419093C74124C061E271E4CE010E941A
S11303C0A906892B49F487E291E40E94470680E05C
S11303D090E40E94250314C064E371E4CE010E94FA
S11303E0A906892B49F489E391E40E94470680E039
S11303F090E40E94680304C088E491E40E944706E4
S1130400DF91CF9108951F920F920FB60F9211248E
S11304100BB60F922F933F934F935F936F937F93FA
S11304208F939F93AF93BF93EF93FF930E946B06B9
S11304308A3081F08D3071F0E091CC4191E09E0FD3
S11304409093CC41F0E0E353FE4B8083993010F05D
S11304501092CC418D3061F4E091CC41F0E0E35353
S1130460FE4B10821092CC418DEC91E40E94460127
S1130470FF91EF91BF91AF919F918F917F916F9178
S11304805F914F913F912F910F900BBE0F900FBE34
S11304900F901F9018951F920F920FB60F92112470
S11304A00BB60F922F933F934F935F936F937F936A
S11304B08F939F93AF93BF93EF93FF938091C84122
S11304C09091C941892B49F40E941D0681E090E076
S11304D08093C8419093C94121C0E0E0FAE0808153
S11304E08E7F808320A131A11092200A1092210ACC
S11304F0AFE9B6E40E948606929582958F708927AB
S11305009F70892763E070E00E9472066093CA417D
S11305107093CB411092C8411092C94188E08093F6
S11305206904FF91EF91BF91AF919F918F917F915A
S11305306F915F914F913F912F910F900BBE0F9050
S11305400FBE0F901F90189580E68093100281E0F3
S113055080934002809342020895E0E0F8E080EC4A
S113056093E08087918782EC878380E48683089573
S1130570E0E1FBE083E190E08487958784859585BD
S11305808287938781E0848396E091838083E0E28D
S1130590FBE02AE030E024873587248535852287EF
S11305A033878483918380830895E0ECF1E088EDC0
S11305B083878CE0828788EC818781E480878081CF
S11305C08160808388E0809301040895CF93DF9352
S11305D0EC01A0E0B0E019C09091040895FFFCCFB5
S11305E0FD01EE0FFF1FEA0FFB1FEC0FFD1FE20FD3
S11305F0F31F9081909302082F5F3F4F02C020E0C9
S113060030E02417350744F31196A617B707BCF357
S113061080E4809304088091040886FFFCCFDF9176
S1130620CF910895E0E0FBE08FEF97E4848795870E
S11306301286138681E08683118280838091060B63
S113064080FFFCCF1092000B08951F93CF93DF938C
S1130650CDB7DEB7C854D109CDBFDEBFFE01319698
S113066088E4DF011D928A95E9F710E027C0FC01B8
S1130670EE0FFF1FE80FF91F21E030E02C0F3D1FA4
S1130680E20FF31F1283019602C080E090E08831EC
S113069091056CF343E050E068E170E0CE0101960F
S11306A00E94E6020E9412033FEF85EA9EE0315069
S11306B080409040E1F700C000001F5F1F3F29F712
S11306C0C85BDF4FCDBFDEBFDF91CF911F9108958F
S11306D0CF93DF93CDB7DEB7C854D109CDBFDEBF0A
S11306E0FE01319688E4DF011D928A95E9F71FEF38
S11306F080E090E00DC0FC01EE0FFF1FE80FF91F32
S113070021E030E02C0F3D1FE20FF31F128301960E
S11307108831910584F343E050E068E170E0CE0154
S113072001960E94E6020E9412033FEF85EA9EE0D2
S1130730315080409040E1F700C000001150D8CF04
S1130740AF92BF92CF92DF92EF92FF920F931F93DB
S1130750CF93DF93CDB7DEB72997CDBFDEBF8C0132
S11307607B015A016901232B09F0A5C068E170E0FF
S11307700E94E6021F82188680E289871C828FEF1E
S11307808D831E8219821A821B82E114F104F1F016
S113079021C0842F90E0FC01EE0FFF1FE80FF91F2A
S11307A0E00FF11FA1E0B0E0AC0FBD1FA20FB31F1B
S11307B08C91E20FF31F80832F5F3F4F02C020E034
S11307C030E0233031052CF34F5F01C040E0483165
S11307D0B0F371C084E0E816F104ACF140E069C004
S11307E0242F30E0E216F30694F0F901EE0FFF1F18
S11307F0E20FF31FE00FF11FA4E0B0E0AC0FBD1F48
S1130800A80FB91F2C91E80FF91F208313C0242FC0
S113081030E0F901EE0FFF1FE20FF31FE00FF11FAD
S1130820A1E0B0E0AC0FBD1FA80FB91F2C91E80FD9
S1130830F91F2083019602C080E090E08330910587
S11308407CF24F5F01C040E04831B0F334C0242F44
S113085030E0E216F30694F0F901EE0FFF1FE20F09
S1130860F31FE00FF11FA7E0B0E0AC0FBD1FA80F0E
S1130870B91F2C91E80FF91F208313C0242F30E0F7
S1130880F901EE0FFF1FE20FF31FE00FF11FA1E0CC
S1130890B0E0AC0FBD1FA80FB91F2C91E80FF91FD2
S11308A02083019602C080E090E0833091057CF2C1
S11308B04F5F4831C0F3CA94CD2809F082C0A50126
S11308C068E170E0C8010E94E6021F82188680E297
S11308D089871C821D821E8219828FEF8A831B8264
S11308E085E0E816F104ACF148E169C0242F30E05A
S11308F02E153F0594F0F901EE0FFF1FE20FF31FD1
S1130900E00FF11FA1E0B0E0AC0FBD1FA80FB91FAD
S11309102C91E80FF91F208313C0242F30E0F90134
S1130920EE0FFF1FE20FF31FE00FF11FA4E0B0E092
S1130930AC0FBD1FA80FB91F2C91E80FF91F20831E
S1130940019602C080E090E0833091057CF2415032
S113095001C048E14111F6CF34C0242F30E02E15F8
S11309603F0594F0F901EE0FFF1FE20FF31FE00FB4
S1130970F11FA7E0B0E0AC0FBD1FA80FB91F2C9169
S1130980E80FF91F208313C0242F30E0F901EE0F84
S1130990FF1FE20FF31FE00FF11FA4E0B0E0AC0F64
S11309A0BD1FA80FB91F2C91E80FF91F20830196D2
S11309B002C080E090E0833091057CF24150411107
S11309C0F8CF43E050E068E170E0C8010E94E6021D
S11309D00E9412032996CDBFDEBFDF91CF911F91F4
S11309E00F91FF90EF90DF90CF90BF90AF9008955C
S11309F0DF92EF92FF920F931F93CF93DF93CDB7C4
S1130A00DEB7CE54D109CDBFDEBF7B018A0143E0FE
S1130A1050E068E170E00E94E602FE01319688E44D
S1130A20DF011D928A95E9F72A961FAE2A972B9625
S1130A301FAE2B9780E22C968FAF2C97D12C25C01C
S1130A40E9E4F0E0EC0FFD1FE80FF91F4081F90124
S1130A50EE0FFF1FE20FF31F61E070E06C0F7D1FCC
S1130A60E60FF71FE80FF91F4083019602C080E0EC
S1130A7090E08017910724F3A801B701CE010196F5
S1130A800E94E6020E941203D3942D2D30E02E150D
S1130A903F056CF32D961FAE2D972E961FAE2E9705
S1130AA02F961FAE2F97DD24DA94DE0C31C08D2DE6
S1130AB090E0ECE4F0E0EC0FFD1FE20FF31F408147
S1130AC0FC01EE0FFF1FE80FF91F81E090E08C0F8F
S1130AD09D1FE80FF91FE20FF31F40832F5F3F4F65
S1130AE002C020E030E0201731070CF3A801B70161
S1130AF0CE0101960E94E6020E9412039FEFAEE926
S1130B00B4E29150A040B040E1F700C00000DA9494
S1130B10D110E7CFC25BDF4FCDBFDEBFDF91CF91F6
S1130B201F910F91FF90EF90DF900895DF92EF9265
S1130B30FF920F931F93CF93DF93CDB7DEB7CB54C0
S1130B40D109CDBFDEBF7B018A01FE01319628E4C5
S1130B50DF011D922A95E9F7FC01808189832A9699
S1130B601FAE2A972B961FAE2B9780E22C968FAF41
S1130B702C97D12C2EC0E9E4F0E0EC0FFD1FE80F18
S1130B80F91F4081F901EE0FFF1FE20FF31F61E02F
S1130B9070E06C0F7D1FE60FF71FE80FF91F40830D
S1130BA0019602C080E090E08017910724F3A80129
S1130BB0B701CE0101960E94E6020E9412037FEF64
S1130BC08EE994E2715080409040E1F700C000004B
S1130BD0D3942D2D30E02E153F0524F38AE691E4BD
S1130BE00E944706C55BDF4FCDBFDEBFDF91CF91CB
S1130BF01F910F91FF90EF90DF900895E0E0FAE0ED
S1130C00808182608083E0E6F4E080818860808374
S1130C1084818860848383898160838BE0EAF4E043
S1130C2080E1818385830895E0EAF4E080E18583AF
S1130C3098E59A95F1F786830895E0E0FAE08081DB
S1130C40816080838081846080830895E0E6F4E09D
S1130C5083898160838B0895E0E2F4E081E08183FD
S1130C6082E0828380E197E2809368089093690828
S1130C70E0E6F8E080EC86838581806885830895CA
S1130C809091640895FFFCCF809362080895CF93F8
S1130C90DF93EC0103C021960E94400688818111F4
S1130CA0FACFDF91CF910895CF93DF93CDB7DEB71D
S1130CB02897CDBFDEBF4AE0BE016F5F7F4F0E9421
S1130CC0B206CE0101960E9447062896CDBFDEBF2C
S1130CD0DF91CF910895809164088823E4F780918F
S1130CE06008089597FB072E16F4009407D077FD4B
S1130CF009D00E94950607FC05D03EF49095819595
S1130D009F4F0895709561957F4F0895A29FB001FC
S1130D10B39FC001A39F700D811D1124911DB29F2B
S1130D20700D811D1124911D0895AA1BBB1B51E157
S1130D3007C0AA1FBB1FA617B70710F0A61BB70B47
S1130D40881F991F5A95A9F780959095BC01CD01EC
S1130D500895FB01DC018D91019080190110D9F3F4
S1130D60990B0895BB274A3031F4992322F4BDE24C
S1130D70909581959F4F0C94BE06BB27FB01552788
S1130D80AA27880F991FAA1FA41710F0A41B8395E4
S1130D905051B9F7A05DAA3308F0A95DA19300975B
S1130DA079F7B111B1931192CB010C94D706DC0100
S1130DB0FC01672F71917723E1F7329704C07C918E
S1130DC06D9370836291AE17BF07C8F30895DC0179
S1110DD028ED209334006C930895F894FFCF1F
S1130DDE0000200000200000200000200000200061
S1130DEE0020000020000020000020000020000051
S1130DFE2000002000002000002000002000002021
S1130E0E0000200000200000200000200000200030
S1130E1E00200000200000205354415254494E47F4
S1130E2E2E2E200A0D004469737420004F4E004F7D
S1130E3E4B2C204C4544204F4E2E0D0A004F464657
S1130E4E004F4B2C204C4544204F46462E0D0A0095
S1130E5E47524F57004F4B2C205354415254494E36
S1130E6E472047524F57494E472E0D0A00534852BA
S1130E7E494E4B004F4B2C205354415254494E472C
S1130E8E20534852494B494E472E0D0A0053544F96
S1130E9E50004F4B2C2053544F5050494E47204D29
S1130EAE4541535552454D454E542E0D0A00444965
S1130EBE5354414E4345005354415254004F4B2C0E
S1130ECE205354415254494E47204D454153555297
S1130EDE454D454E542E0D0A00494E56455254006A
S1130EEE4F4B2C20494E56455254494E472E0D0A0F
S1130EFE005348494E45004F4B2C205348494E450C
S1130F0E2E0D0A0044494D4D004F4B2C2044494DA3
S1130F1E4D494E472E0D0A0054797065204F4E2FC1
S1130F2E4F464620746F20636F6E74726F6C20741C
S1130F3E6865204C45442E0A0D0047524F57494EC2
S10F0F4E472046494E49534845440000E2
S9030000FC
